:020000040800F2
:1000000000500020993900089D0400089F04000852
:10001000A1040008A3040008A504000800000000D3
:10002000000000000000000000000000A70400081D
:10003000A904000800000000AB040008AD0400089B
:10004000E1390008E1390008E1390008E139000828
:10005000E1390008E1390008E1390008E139000818
:10006000E1390008E1390008E1390008E139000808
:10007000E1390008E1390008E1390008E1390008F8
:10008000E1390008E1390008E1390008E1390008E8
:10009000E1390008E1390008E1390008E1390008D8
:1000A000E1390008E1390008E1390008E1390008C8
:1000B000E1390008E1390008E1390008E1390008B8
:1000C000E1390008E1390008E1390008E1390008A8
:1000D000E1390008E1390008E1390008E139000898
:1000E000E1390008E1390008E139000800000000AA
:1000F0000000000000000000000000000000000000
:0C01000000000000000000005FF808F1A3
:1001100010B5054C237833B9044B13B10448AFF341
:1001200000800123237010BD20010020000000008A
:10013000B449000808B5034B1BB103490348AFF3AA
:10014000008008BD0000000024010020B449000820
:10015000034613F8012B002AFBD1181A0138704707
:10016000FEE7000000B591B0012206924FF4803303
:100170000793002108910A9202220D920E934FF4E8
:10018000E0130F9306A800F051FE08BB0F23019364
:1001900002210291002303934FF48062049205939D
:1001A00001A801F069F8B8B901F022F90C4BA3FBE2
:1001B0000030800901F07CFA042001F08FFA00225F
:1001C00011464FF0FF3001F03FFA11B05DF804FB2B
:1001D00041210448FFF7C4FF4F210248FFF7C0FF49
:1001E000D34D6210E049000808B500F0E5FDFFF7C7
:1001F000B9FF00F017F800F04BF800F003F900F039
:10020000C1F80C21064800F0C9FB01F029FF01F0FC
:1002100037FC02F013F801F077FC02F02DF8F6E756
:10022000E001002010B588B0174B9A6942F0200217
:100230009A619A6902F020020192019A9A6942F049
:1002400004029A619A6902F004020292029A9A697F
:1002500042F008029A619B6903F008030393039B31
:100260000A4C01223021204601F0D2F930230493B8
:1002700001230593002306930323079304A9204633
:1002800001F0DCF808B010BD00100240000C014085
:1002900008B50C480C4B03601023436000238360B7
:1002A000C360036143618361C3610362436283622C
:1002B000C36200F051F900B908BD45210348FFF7BA
:1002C0004FFFF9E79C01002000640040EC49000862
:1002D0000268144B9A4200D0704710B586B003F5FF
:1002E000D633DA6942F00072DA61DB6903F0007339
:1002F0000193019B4FF40063029300230393049343
:10030000094C02A9204601F099F84FF4805302935A
:10031000022303930323059302A9204601F08EF8DC
:1003200006B010BD00640040000801400268094B9F
:100330009A4200D0704782B003F50333DA6942F085
:100340000202DA61DB6903F002030193019B02B050
:10035000704700BF000400400268084B9A4200D07A
:10036000704700B585B0022300930193039369465B
:10037000034801F063F805B05DF804FB0004004099
:10038000000C014000B58BB01B481C4B0360472399
:1003900043600023836040F69F72C2600361836103
:1003A00000F034FAC8B900230893099308A9124849
:1003B00000F00CFBB0B96023019300230293039378
:1003C00005930C2201A90C4800F06CFA78B90A4890
:1003D000FFF7C2FF0BB05DF804FB3F210848FFF7B1
:1003E000BFFEE0E746210648FFF7BAFEE3E74F21EC
:1003F0000348FFF7B5FEEAE7E001002000040040F3
:10040000F849000808B50B480B4B03604FF4E13383
:10041000436000238360C36003610C2242618361F7
:10042000C36100F004FC00B908BD42210348FFF796
:1004300097FEF9E72002002000380140044A000836
:100440000268144B9A4200D0704710B586B003F58D
:1004500058439A6942F480429A619B6903F480434D
:100460000193019B4FF40073029302230393032330
:100470000593094C02A9204600F0E0FF4FF4806389
:10048000029300230393049302A9204600F0D6FFB1
:1004900006B010BD00380140000801407047FEE77B
:1004A000FEE7FEE7FEE770477047704708B500F0CB
:1004B00095FC01F024F908BD00B583B0244B9A697E
:1004C00042F001029A619A6902F001020092009AD8
:1004D000DA6942F08052DA61DB6903F080530193FC
:1004E000019B032001F09EF8002211466FF00B00E3
:1004F00001F0AAF8002211466FF00A0001F0A4F8FA
:10050000002211466FF0090001F09EF8002211460A
:100510006FF0040001F098F8002211466FF003001C
:1005200001F092F8002211466FF0010001F08CF802
:10053000002211464FF0FF3001F086F8054A53685B
:1005400023F0E06343F00073536003B05DF804FBF5
:100550000010024000000140002800F0968038B5ED
:10056000044690F83C3003B3022384F83C30226800
:10057000136823F0020313602268136843F0010339
:10058000136000F037FC054623685A6812F0010F2B
:1005900010D100F02FFC401B0A28F5D9032084F865
:1005A0003C00002384F83D3038BD80F83D30FFF733
:1005B0008FFED9E75A6812F0010F5BD0A269012AB9
:1005C00043D00022E169012941D022F04002216A92
:1005D00001293FD022F02002616A01293DD022F09A
:1005E0001002A16A01293BD022F00802E16A012928
:1005F00039D022F00402196821F0FC010A431A6084
:10060000A368E26813432269134362691343626873
:10061000013A21681343CB612268136823F0010378
:10062000136000F0E7FB054623685A6812F0010FDB
:100630001CD000F0DFFB401B0A28F5D9032084F80A
:100640003C00002384F83D30AEE78022BAE742F058
:100650004002BCE742F02002BEE742F01002C0E7D1
:1006600042F00802C2E742F00402C4E75B6813F0FC
:10067000010F04D0042384F83C30012094E70020CB
:100680002064012384F83C308EE70120704700008D
:1006900070B4036A23F001030362036A4268846949
:1006A00024F073040D6845EA040623F002048B6805
:1006B00023430D4DA84209D00B4DA8420DD04260F6
:1006C00086614A684263036270BC704723F0080386
:1006D000CC68234323F00403EEE722F440724C6914
:1006E00014438A692243EAE7002C014030B4036ACC
:1006F00023F480730362036A4268C46924F07304BC
:100700000D682C4323F400738D6843EA05230F4DD5
:10071000A84209D00D4DA8420ED04260C4614A687B
:10072000C263036230BC704723F40063CD6843EAC0
:10073000052323F48063EDE722F440524D6942EA39
:1007400005128D6942EA0512E7E700BF002C01405F
:1007500030B4036A23F480530362036A4468C269B5
:1007600022F4E6420D6842EA052223F400538D6824
:1007700043EA0533074DA84206D04460C2614A6887
:100780000264036230BC704724F480444D6944EA3B
:100790008514F2E7002C014003681B4A90420AD0FE
:1007A000B0F1804F07D0A2F59432904203D002F509
:1007B0008062904203D123F070034A681343124AC7
:1007C00090420AD0B0F1804F07D0A2F59432904207
:1007D00003D002F58062904203D123F44073CA68CB
:1007E000134323F080034A69134303608B68C36299
:1007F0000B688362044B984202D001234361704727
:100800000B690363F9E700BF002C0140A8B110B5E4
:10081000044690F83D305BB1022384F83D30211D41
:100820002068FFF7B9FF012384F83D30002010BD98
:1008300080F83C30FFF77AFDEEE7012070470000BA
:1008400030B4036A23F010030362036A44688269C8
:1008500022F4E6420D6842EA052223F020038D6867
:1008600043EA05130E4DA84209D00D4DA8420ED003
:10087000446082614A688263036230BC704723F03F
:100880008003CD6843EA051323F04003EDE724F429
:1008900040644D6944EA85048D6944EA8504E7E7CC
:1008A000002C014038B590F83C30012B66D00D4645
:1008B0000446012380F83C30022380F83D300C2AA6
:1008C0001AD8DFE802F00719191920191919341973
:1008D000191947000068FFF7DBFE2268936943F0AF
:1008E000080393612268936923F0040393612268EB
:1008F000936929690B439361012384F83D300020FB
:1009000084F83C0038BD0068FFF79AFF22689369BD
:1009100043F4006393612268936923F480639361D5
:1009200022689369296943EA01239361E4E7006837
:10093000FFF7DCFE2268D36943F00803D361226825
:10094000D36923F00403D3612268D36929690B4377
:10095000D361D1E70068FFF7FBFE2268D36943F457
:100960000063D3612268D36923F48063D361226872
:10097000D369296943EA0123D361BDE70220C1E7B6
:1009800010B4012303FA01F4036A23EA04030362A7
:10099000036A8A401343036210BC704710B50446D3
:1009A00001220068FFF7ECFF2368074A934206D054
:1009B0002268136843F001031360002010BD5A6CD5
:1009C00042F400425A64F3E7002C014090F83C30B6
:1009D000012B22D030B4012280F83C20022380F881
:1009E0003D300468636823F07003636004686368E3
:1009F0000D682B4363600468A36823F08003A36041
:100A00000468A36849680B43A36080F83D20002375
:100A100080F83C30184630BC704702207047000018
:100A20002DE9F84305460268136923F44053C16871
:100A30000B431361836802691343426913430168DE
:100A4000CA6822F4B05222F00C021343CB60026851
:100A5000536923F4407381690B4353610268594B16
:100A60009A4257D000F0CAFC00EB800000EB8000F7
:100A70006C68A400B0FBF4F4534FA7FB0434640982
:100A8000260100F0BBFC00EB800000EB80006C68EE
:100A9000A400B0FBF4F900F0B1FC00EB800000EB27
:100AA00080006C68A400B0FBF4F4A7FB0434640974
:100AB0004FF0640808FB149424013234A7FB04347B
:100AC000640904F0F004344400F098FC00EB80006A
:100AD00000EB80006E68B600B0FBF6F600F08EFC0E
:100AE00000EB800000EB80006B689B00B0FBF3F034
:100AF000A7FB0030400908FB10684FEA081808F10E
:100B00003208A7FB0837C7F343172B6827449F60B9
:100B1000BDE8F88300F082FC00EB800000EB800071
:100B20006C68A400B0FBF4F4274FA7FB04346409FD
:100B3000260100F073FC00EB800000EB80006C6885
:100B4000A400B0FBF4F900F069FC00EB800000EBBE
:100B500080006C68A400B0FBF4F4A7FB04346409C3
:100B60004FF0640808FB149424013234A7FB0434CA
:100B7000640904F0F004344400F050FC00EB800001
:100B800000EB80006E68B600B0FBF6F600F046FCA5
:100B900000EB800000EB80006B689B00B0FBF3F083
:100BA000A7FB0030400908FB10684FEA081808F15D
:100BB0003208A7FB0837C7F343172B6827449F6009
:100BC000A6E700BF003801401F85EB512DE9F04139
:100BD00005460F4616469846069C2B681B6837EA62
:100BE00003030CBF01230023B3421DD1B4F1FF3F27
:100BF000F3D02CB100F0FEF8A0EB0800A042ECD935
:100C00002A68D36823F4D073D3602A68536923F029
:100C100001035361202385F8393085F83A300023E9
:100C200085F83830032000E00020BDE8F08158B39B
:100C300010B5044690F839300BB3242384F83930CA
:100C40002268D36823F40053D3602046FFF7E8FE00
:100C50002268136923F4904313612268536923F0D7
:100C60002A0353612268D36843F40053D360002001
:100C7000E063202384F8393084F83A3010BD80F8DE
:100C80003830FFF7DDFBD8E7012070472DE9F04150
:100C900082B01E4690F83930DBB2202B55D1044685
:100CA0000D469046002955D0002A55D090F838308E
:100CB000012B53D0012380F838300023C363212354
:100CC00080F8393000F096F80746A4F82480A4F89C
:100CD000268010E000963B46002280212046FFF748
:100CE00075FF00283CD12B882268C3F308035360AA
:100CF0002369C3B90235E38C9BB2B3B1E38C013BEA
:100D00009BB2E384A368B3F5805FE3D000963B46D3
:100D1000002280212046FFF759FF18BB2A7823685C
:100D20005A600135E7E70135E5E700963B460022CA
:100D300040212046FFF74AFF0346A8B9202284F845
:100D40003920002284F8382000E00223184602B03F
:100D5000BDE8F0810123F9E70123F7E70223F5E776
:100D60000323F3E70323F1E70323EFE710B504467A
:100D70000E4B18784FF47A73B3FBF0F30C4A1068FB
:100D8000B0FBF3F000F094FC68B90F2C01D90120FE
:100D90000AE0002221464FF0FF3000F055FC054BE1
:100DA0001C60002000E0012010BD00BF00000020FA
:100DB000080000200400002008B5074A136843F02B
:100DC00010031360032000F02DFC0020FFF7CEFF7E
:100DD000FFF772FB002008BD00200240034A1168A3
:100DE000034B1B780B441360704700BF6002002068
:100DF00000000020014B1868704700BF600200200F
:100E000082B0084B1B68084AA2FB03235B0A00FB65
:100E100003F0019000BF019B5A1E0192002BF9D1F3
:100E200002B0704708000020D34D621070B582B048
:100E30000446036813F0010F2CD0AB4B5B6803F042
:100E40000C03042B1DD0A84B5B6803F00C03082B8C
:100E500012D06368B3F5803F41D0002B55D103F128
:100E6000804303F504331A6822F480321A601A684A
:100E700022F480221A6037E09B4B5B6813F4803FBA
:100E8000E7D0994B1B6813F4003F03D06368002B35
:100E900000F0AE81236813F0020F76D0924B5B68AE
:100EA00013F00C0F5FD0904B5B6803F00C03082B22
:100EB00054D02369002B00F08A808C4B01221A60E9
:100EC000FFF798FF0546884B1B6813F0020F75D19A
:100ED000FFF790FF401B0228F5D903208BE1824ADF
:100EE000136843F480331360636843B3FFF782FFF2
:100EF00005467D4B1B6813F4003FCBD1FFF77AFF0B
:100F0000401B6428F5D9032075E1B3F5A02F09D063
:100F1000754B1A6822F480321A601A6822F4802213
:100F20001A60E1E703F18043A3F53C331A6842F409
:100F300080221A601A6842F480321A60D4E7FFF700
:100F400059FF0546684B1B6813F4003FA2D0FFF71A
:100F500051FF401B6428F5D903204CE1624B5B68CC
:100F600013F4803FA5D1604B1B6813F0020F04D02F
:100F70002369012B01D001203DE15B4A136823F076
:100F8000F803616943EAC1031360236813F0080F93
:100F900032D0A369002B5BD0554B01221A60FFF7BA
:100FA00029FF0546504B5B6A13F0020F21D1FFF772
:100FB00021FF401B0228F5D903201CE14A4A13688F
:100FC00023F0F803616943EAC1031360DDE7474B8F
:100FD00000221A60FFF70EFF0546434B1B6813F013
:100FE000020FD2D0FFF706FF401B0228F5D90320DD
:100FF00001E10120FFF704FF236813F0040F00F064
:101000009780394BDB6913F0805F33D1364BDA6957
:1010100042F08052DA61DB6903F080530193019B57
:101020000125344B1B6813F4807F25D0E368012B26
:1010300036D0002B4CD103F1804303F504331A6AF8
:1010400022F001021A621A6A22F004021A622CE0EB
:10105000274B00221A60FFF7CDFE0546224B5B6A44
:1010600013F0020FC8D0FFF7C5FE401B0228F5D9C8
:101070000320C0E00025D4E71E4A136843F48073C0
:101080001360FFF7B7FE06461A4B1B6813F4807F08
:10109000CCD1FFF7AFFE801B6428F5D90320AAE06E
:1010A000114A136A43F001031362E36873B3FFF755
:1010B000A1FE06460C4B1B6A13F0020F37D1FFF757
:1010C00099FE801B41F288339842F3D9032092E0C5
:1010D000052B11D0044B1A6A22F001021A621A6A17
:1010E00022F004021A62E0E70010024000004242CF
:1010F0008004424200700040414B1A6A42F00402F0
:101100001A621A6A42F001021A62CEE7FFF772FE13
:1011100006463B4B1B6A13F0020F08D0FFF76AFE2E
:10112000801B41F288339842F3D9032063E0E5B98C
:10113000E369002B5ED0324A526802F00C02082AA2
:101140005BD0022B17D02F4B00221A60FFF752FE04
:1011500004462B4B1B6813F0007F47D0FFF74AFE75
:10116000001B0228F5D9032045E0254AD36923F066
:101170008053D361DCE7234B00221A60FFF73AFE6D
:1011800005461F4B1B6813F0007F06D0FFF732FEA9
:10119000401B0228F5D903202DE0236AB3F5803FD8
:1011A0001AD017494B6823F47413226A606A024309
:1011B00013434B60134B01221A60FFF71BFE0446DA
:1011C0000F4B1B6813F0007F0ED1FFF713FE001BBF
:1011D0000228F5D903200EE0094A536823F40033AE
:1011E000A1680B435360DCE7002004E0002002E02C
:1011F000012000E0002002B070BD0120FBE700BF2D
:10120000001002406000424210B487B0164C94E8CF
:101210000F000DF1180C0CE90F00238AADF8043013
:10122000124B5B6803F00C02082A1AD1C3F3834205
:10123000624412F8102C13F4803F05D10C4800FBD7
:1012400002F007B010BC7047084B5B68C3F3404323
:10125000634413F8143C074800FB02F0B0FBF3F0C2
:10126000EFE70448EDE700BFCC490008001002405A
:1012700000093D0000127A00594B1B6803F0070378
:101280008B420CD2564A136823F007030B431360BA
:10129000136803F007038B4201D00120704770B53B
:1012A000036813F0020F06D04E4A536823F0F00390
:1012B0008468234353600C460546036813F0010F0E
:1012C00052D04368012B23D0022B28D0454A126804
:1012D00012F0020F00F0828042494A6822F00302B5
:1012E00013434B60FFF786FD06466B68012B1DD04C
:1012F000022B2AD03B4B5B6813F00C0F34D0FFF766
:1013000079FD801B41F288339842F3D9032064E0D1
:10131000344A126812F4003FDED101205DE0314A08
:10132000126812F0007FD7D1012056E02D4B5B6888
:1013300003F00C03042B17D0FFF75CFD801B41F278
:1013400088339842F2D9032047E0264B5B6803F0CC
:101350000C03082B08D0FFF74DFD801B41F28833AA
:101360009842F2D9032038E01D4B1B6803F00703B5
:10137000A3420CD91A4A136823F0070323431360CE
:10138000136803F00703A34201D0012025E02B6876
:1013900013F0040F06D0134A536823F4E063E9689E
:1013A0000B4353602B6813F0080F07D00D4A5368A6
:1013B00023F46053296943EAC1035360FFF724FF14
:1013C000084B5B68C3F30313074AD35CD840074B51
:1013D00018600020FFF7CAFC002070BD0120FCE768
:1013E0000020024000100240104A000808000020BF
:1013F000014B1868704700BF0800002008B5FFF7D0
:10140000F7FF044B5B68C3F30223034AD35CD84065
:1014100008BD00BF00100240204A000808B5FFF7D1
:10142000E7FF044B5B68C3F3C223034AD35CD84095
:1014300008BD00BF00100240204A0008F0B482B08E
:1014400000263546A1E0002C59D0012C00D1CE68F1
:10145000FF2B68D88446FF2B68D8AC00DCF800204E
:101460000F27A74022EA070206FA04F42243CCF829
:1014700000204A6812F0805F00F086805E4A94691E
:1014800044F001049461926902F001020192019A10
:10149000AC08A71C594A52F8272005F00307BF00E3
:1014A0004FF00F0C0CFA07FC22EA0C0C544A904245
:1014B00042D002F5806290427FD002F58062904275
:1014C0007DD002F58062904234D0042235E04D4F49
:1014D000BC4214D00BD94C4FBC4210D007F580371A
:1014E000BC420CD0A7F58017BC42B1D107E0A7F5EC
:1014F0008017BC4203D007F58037BC42A8D18C6866
:101500007CB1012C08D042610826A1E7CE680836DC
:101510009EE7CE680C369BE70261082698E7002616
:1015200096E7042694E700F1040C94E7A5F108047B
:10153000A40093E7032200E00022BA4042EA0C0232
:1015400002342E4F47F824204A6812F4803F38D0E6
:101550002E4C22681A4322604A6812F4003F36D0AB
:101560002A4C62681A4362604A6812F4801F34D0C1
:10157000264CA2681A43A2604A6812F4001F32D0B7
:10158000224CE2681343E36001350F2D31D801226C
:10159000AA400B6813409A42F6D14C68122CB8D07E
:1015A00095D8022CB2D07FF64EAF032CB7D0112CB9
:1015B0007FF44EAFCE6804364AE70122BDE702222F
:1015C000BBE7124C226822EA03022260C4E70F4CF8
:1015D000626822EA03026260C6E70C4CA26822EA53
:1015E0000302A260C8E7094CE26822EA0303E36051
:1015F000CAE702B0F0BC7047001002400000014092
:1016000000080140000021100000311000040140DA
:1016100012B909040161704701617047C3685940FC
:10162000C1607047074AD36823F4E0631B041B0CB6
:10163000000200F4E060184340F0BF6040F4003066
:10164000D060704700ED00E030B4174BDB68C3F3A7
:101650000223C3F10704042C28BF04241D1D062DFA
:1016600018D9033B4FF0FF3505FA04F421EA0401D1
:10167000994005FA03F322EA0303194300280BDB20
:101680000901C9B200F1604000F5614080F8001323
:1016900030BC70470023E5E700F00F000901C9B234
:1016A000024B1954F4E700BF00ED00E014ED00E038
:1016B0000138B0F1807F0AD2064B5860064AF0210B
:1016C00082F823100020986007221A6070470120DA
:1016D000704700BF10E000E000ED00E0042805D0F6
:1016E000054A136823F0040313607047024A136825
:1016F00043F004031360704710E000E0704708B542
:10170000FFF7FCFF08BD0000044B0022DA61044A29
:10171000136943F0010313610180704768020020E0
:10172000002002401A4BDB6813F0100F27D0194A33
:10173000D36943F00203D3611023154AD26812F033
:10174000040F06D01349CA6942F00102CA6143F08E
:1017500004030F4AD26912F0010F09D00D49CA697A
:1017600042F00402CA610A49CA6922F00102CA6150
:1017700040F20112934204D0054AD360704700231F
:10178000DBE7034AD36923F00103D361704700BF4D
:1017900000200240680200200A4B1B6913F0800FF2
:1017A0000DD0084B084A5A6002F188325A601B6912
:1017B00013F0800F01D001207047002070470020F7
:1017C000704700BF0020024023016745034A1369A8
:1017D00043F0800313610020704700BF00200240E7
:1017E00038B50446FFF706FB0546174BDB6813F0D8
:1017F000010F0AD0B4F1FF3FF7D00CB3FFF7FAFAAC
:10180000401BA042F1D9032019E00F4BDB6813F015
:10181000200F02D00C4B2022DA600B4BDB6813F058
:10182000100F09D1084BDB6913F0010F04D1064BEF
:10183000DB6813F0040F05D0FFF774FF012038BDFB
:101840000320FCE70020FAE7002002402DE9F843DE
:10185000234C247E012C41D01E4690460F46044660
:101860001F4B01221A764CF25030FFF7B9FF0346A6
:1018700070BB012C29D0022C24D04FF00409002485
:101880004C4525D22101C1F12002A1F1200328FA03
:1018900001F106FA02F2114326FA03F3194389B261
:1018A00007EB4400FFF730FF4CF25030FFF798FF92
:1018B0000C4B1D6925F001051D61034640B901343B
:1018C000E4B2DDE74FF00209D9E74FF00109D6E7AE
:1018D000034A002111761846BDE8F8830223FAE78F
:1018E0006802002000200240064B0022DA61064B0D
:1018F0001A6942F004021A611A6942F040021A6140
:10190000704700BF6802002000200240064B002202
:10191000DA61064B1A6942F002021A6158611A69CB
:1019200042F040021A617047680200200020024025
:10193000264B1B7E012B46D070B50E460446234B2A
:1019400001221A760368022B20D04CF25030FFF7A8
:1019500047FF90BB4FF0FF333360A5680122E16879
:10196000A36803EB8123AB4228D92846FFF7CEFFBB
:101970004CF25030FFF734FF154A136923F002038D
:1019800013610246B8B905F58065E8E74CF25030BE
:10199000FFF726FF08B1012210E00120FFF7A4FFA6
:1019A0004CF25030FFF71CFF024609490B6923F047
:1019B00004030B6102E0356000E00122034B0021CB
:1019C0001976104670BD022210467047680200204A
:1019D000002002400F4B1A6842F001021A60596859
:1019E0000D4A0A405A601A6822F0847222F480324A
:1019F0001A601A6822F480221A605A6822F4FE02E1
:101A00005A604FF41F029A60044B4FF000629A60D4
:101A1000704700BF001002400000FFF800ED00E03A
:101A2000012B07D040F206439A420CD00B2A11D06A
:101A300000207047012AF5D10BA3D3E90023C1E9A7
:101A40000023012070470AA3D3E90023C1E9002342
:101A50000120704708A3D3E90023C1E90023012036
:101A6000704700BFAFF300809E6AC421818A46EEB2
:101A70001D95ECD7875C7F21D5A4D139F922B6A773
:101A800008B50A4801F09FF904E001BE07E00748E5
:101A900001F099F948B101F0A5FE0028F5DB002816
:101AA000F5DD024801F095F9F1E708BD3C010020A1
:101AB00030B583B0044600258DF807508DF80650E8
:101AC0000560C0F80350FFF795F90E4BA3FB0030FB
:101AD000800902AB43F8080D20222946204601F078
:101AE000C1FA0DF1070302222021204601F0BAFAC3
:101AF0000DF1060303222221204601F0B3FA03B0C0
:101B000030BD00BFD34D621010B588B0FFF772F939
:101B1000134B1B6803F5FA73984201D208B010BD4D
:101B2000FFF768F90E4B186006AC2046FFF7C0FFC0
:101B3000072304930394182302930A4B019340F262
:101B40005513009304A3D3E90023074801F08AF852
:101B5000E4E700BFAFF30080F1C6A7C1D068080F6B
:101B600070010020740100203C010020002302E0ED
:101B7000C3540133DBB20F2BFAD9704770B582B072
:101B8000054640F27912002101F08BFF2846FFF74D
:101B90008FFF6323EB712B7201236B7202AB0F4A31
:101BA00043F8042D20225021284601F05BFA05F16C
:101BB0001800FFF7DBFF0A4C0FCCC5F82900C5F869
:101BC0002D10C5F83120C5F835302068C5F839002A
:101BD000237985F83D303E2002B070BDFE0FDCBA9F
:101BE0004C4A00080000000030B5E7B0044607ADDD
:101BF00040F279120021284601F053FF2846FFF7F2
:101C0000BDFFE17E0590049500230393A37E02931C
:101C1000193401940123009304A3D3E9002302485B
:101C200001F083F867B030BD3C0100209E6AC421FA
:101C3000818A46EEC00800F57A70024B1B68186472
:101C4000704700BFE001002000B585B00F4B1A8837
:101C50004FF6FF739A4215D00C4A13880133138054
:101C60000B4B9B6DC3EBC303590003AB00930123E4
:101C70000E2201F0B7F8BDF80C00FFF7DBFF05B04E
:101C80005DF804FB014B00221A80E5E766010020A5
:101C90001800002070B582B00C4600238DF8073084
:101CA00001238DF80630002865D005460DF10703A5
:101CB00005220021204601F0D5F90DF1060303228B
:101CC0000521204601F0CEF905F108034022082144
:101CD000204601F0C7F90DF10703052248212046EF
:101CE00001F0C0F90DF1060303224D21204601F059
:101CF000B9F905F1200340225021204601F0B2F944
:101D00000DF1070306229021204601F0ABF90DF1F9
:101D1000060302229621204601F0A4F905F11803DA
:101D200040229821204601F09DF90DF1070306227B
:101D3000D821204601F096F90DF106030222DE219A
:101D4000204601F08FF905F110034022E0212046E2
:101D500001F088F924342E683046FEF7F9F902467E
:101D60003146204601F092FE2868FEF7F1F9243052
:101D700080B202B070BD00258DF806500DF107034A
:101D800005222946204601F06DF90DF106030322D4
:101D90000521204601F066F90DF10703062208210E
:101DA000204601F05FF90DF1060302220E212046C4
:101DB00001F058F90DF1070306221021204601F029
:101DC00051F90DF1060302221621204601F04AF9CD
:101DD000E5700420CDE7000010B50C4C042221462C
:101DE0000B4B186800F092FA20880021094BC3E9D8
:101DF000020160880021C3E90C01A0880021C3E929
:101E00001601E0880021C3E9200110BD8C060020E6
:101E10000C0000201800002008B5084B9A680849FB
:101E20000A801A6B4A809A6D8A80D3F88030CB8002
:101E30000422044B186800F043FA08BD1800002083
:101E40008C0600200C000020F0B59FB006464FF62F
:101E5000FF73ADF8763000248DF875400020002126
:101E6000CDE91A0102224E494E48FEF70FFF0DF14F
:101E70007603009323460D222146304600F0B2FF40
:101E80000DF175030093234603220D21304600F027
:101E9000A9FF9DF87530012B0FD01025B78A2B466E
:101EA000002D14DBDB105B429BB21F44BFB2002449
:101EB000169417941894199416E01AAB00932346BD
:101EC00040221021304600F08DFF5025E6E7EB1D43
:101ED000E8E716AB23440093002308222946304646
:101EE00000F080FF08350134A742F2DC9DF858303D
:101EF0007BB9BDF87630032B4BD803EB8303DA00B4
:101F0000294D15441BE004EB8407FB00264D1D44BE
:101F100015E00024032C11D804EB8402D300224ADC
:101F2000D5582846FEF714F90246294616A802F0AD
:101F300083F80028E7D00134A4B2EBE700251DB1F7
:101F40009DF87530012B1FD0002406943C222146B9
:101F500007A801F0A6FD06AF39462846FFF79AFE0E
:101F6000F17E059004970394B37E0293193601968F
:101F70000B23009308A3D3E900230C4800F0D5FEFF
:101F8000FFF74AFF1FB0F0BDDDE91A23C5E90223C0
:101F9000DAE70025D8E700BFD5A4D139F922B6A7E2
:101FA000484A000820020020180000203C010020C0
:101FB00010B50C460B7E012B08D0E28A40F2064396
:101FC0009A420AD0E38A0B2B0BD010BDCB8A012B8F
:101FD000F3D10846FFF708FEEFE72046FFF734FE8F
:101FE000F0E72046FFF730FFEFE700001B4BD3E997
:101FF000020110F1FF3241F1FF33002B08BF7F2AAD
:1020000004D3164B63200021C3E90201134BD3E92B
:102010000C23652A73F1000304DB104B0A20002116
:10202000C3E90C010D4BD3E91623152A73F1000304
:1020300004DB0A4B00200021C3E91601074BD3E95A
:1020400020234FF47A700021904271EB030304DAED
:10205000024B00200021C3E9200170471800002036
:10206000F0B585B0FFF7B8FEFFF7C0FF4A4B9A689E
:102070004A4B1A70FFF7C2F900230293ADF80C30F7
:10208000474CA4FB0034A40C0923591CB4FBF1F207
:1020900001FB124222B1022B79D9013BDBB2F4E7FA
:1020A000B4FBF1F14A1EB2F5806F72D2C3EBC306E6
:1020B000F21C22D4D210D5B25F1BFFB2AB421ED9A4
:1020C000D2B24FF47A7402FB04443A440132B4FBB6
:1020D000F2F292B2B2F5617F05D9751E16D4C5F33E
:1020E000C7055B1BDFB26B1EDBB20F2B10D8002FB6
:1020F00042D0082F42D900220BE00732DAE7294B01
:10210000294A40F21511294801F06CFC0735E6E731
:102110000022EB1903FB0113B0FBF3F0244B9842B0
:102120002ED16AB3ADF8081001238DF80C308DF86C
:102130000A508DF80B70002303B101BE002102A8E4
:1021400001F06CFA00B101BE1A4C002301931A4B46
:1021500000931A4B4FF480621949204600F03AFD73
:102160000E4B1978204600F05DFD01221021154824
:10217000FFF74EFA05B0F0BD0022CAE70122C8E71A
:10218000114B094A40F22F11084801F02BFC0F4B6C
:10219000D2E70E4BD0E700BF18000020100000204F
:1021A00083DE1B439C4A0008284A0008B04A000806
:1021B00040420F003C010020211A0008B11F000816
:1021C00088020020000C0140184D000818FCFFFF99
:1021D00010B50446FEF70EFE124B1B6803F57A732A
:1021E000984200D210BDFEF705FE0E4B18600E4B54
:1021F0001B88A3420AD00C4B1C804FF6FF730222AF
:102200000A490B48FEF742FD0020EBE74FF6FF734B
:10221000022208490648FEF739FD0120064B1870D6
:10222000E0E700BF6C01002068010020684A000858
:1022300020020020644A00086401002000B585B037
:10224000684601F059FB30B9094B1888FFF7C0FF09
:1022500005B05DF804FBFEF7CDFD4FF47A7202FB8A
:1022600000F200236946034800F082FFECE700BF5C
:10227000660100203C01002008B5FEF7BBFD0C4BB9
:102280001B6803F57A73984200D208BDFEF7B2FDD1
:10229000074B1860074B1B782BB90022102106480A
:1022A000FFF7B6F9F1E710210348FFF7B7F9ECE7BC
:1022B0006001002064010020000C0140008870478C
:1022C000F0B585B005460F461646FFF765FA0123BF
:1022D00000930C4A029203930B496846FFF728FBD0
:1022E000002408E037F81420002329460120FFF7D6
:1022F000ADFA02350134A642F4DCFFF767FA05B007
:10230000F0BD00BF00F0000876010020F8B50546DA
:102310000F461646002406E02846FFF7CFFF27F8B1
:10232000140002350134A642F6DCF8BD091A89B260
:1023300008B2002800DB7047203108B2FBE710B478
:1023400021F0604420F06042C30FB3EBD17F10D086
:1023500000290ADB00280ADB944203D094422CBFF8
:1023600000230123184610BC7047A40CF2E7920C1E
:10237000F2E7C1F38071C0F38073944204D09442B9
:102380002CBF00230123EDE79942EBD1F7E710F0D2
:10239000800F06D010F4004F01D1002070470120BB
:1023A00070470220704710B50446FFF7F0FF02287F
:1023B00002D0C4F3074010BDC4F30F2014F07F0F08
:1023C000F9D100F00300F6E720B103698B4201D098
:1023D0000068F9E770470020704780EA0120002379
:1023E00007E0400080B280F4815080F001000133AA
:1023F000DBB2072B05D810F4004FF2D1400080B2B9
:10240000F5E7704770B516461D46002410E0C4F18C
:102410002002A4F1200326FA04F105FA02F2114386
:1024200025FA03F31943C9B2FFF7D7FF0834A4B262
:102430003F2CECD970BD38B505E04D1C0978FFF78D
:10244000CCFF22462946541E002AF6D138BD30B4AE
:102450000546002304E001EB43142C6025460133BC
:102460009A42F8D800232B608280C380038130BC5D
:1024700070470246006850B103681360D388013387
:102480009BB2D38011898B4202D9138170470020FF
:10249000704708B5FFF7EDFF034608B10022026060
:1024A000184608BD2DE9F84FCC8AC4F30904062C60
:1024B0001CD0264625460024052D02D89FB2A742EF
:1024C0000AD89DB2A54212D83544CB8A65F30903D8
:1024D000CB820120BDE8F88F12F804C04F1987F8AD
:1024E0001AC00135ADB20134A4B2E5E70024994623
:1024F00093460E468246CD8AC5F30905AA1F1C23C2
:10250000B2FBF3F803FB18281FFA88F84F687FBB6B
:10251000FFF7BFFF07467060002846D04FF0000865
:102520001FFA89F1A1423CD8F28AC2F309030B4495
:1025300063F30902F2820120CCE7013292B21F4616
:102540003B68002BF9D109EB0503063B1C25B3FBC7
:10255000F5F39BB201339BB29A42E1D2B8F1000F7E
:10256000DED15046FFF795FF386008B30746D7E73E
:102570000122E5E71BF80400BB181871013292B282
:102580000134A4B21B2A01D8A142F3D8A1420AD92E
:102590005046FFF77EFF386068B14FF000080746ED
:1025A000BEE74246EEE73846F9E76FF0020091E7F2
:1025B0006FF002008EE76FF002008BE72DE9F0412B
:1025C00090B10D4680460B7CABB1C769D7B13E4692
:1025D0003C46CCB169686068FFF7B1FEB0B92368CA
:1025E0002646E3B11C46F4E70E4B0F4A4FF46F71D9
:1025F0000E4801F0F7F90E4B0B4A40F2BD310B4883
:1026000001F0F0F9C8F81C10BDE8F081A74202D033
:1026100035602C60F8E72C60C8F81C50F4E72560A2
:10262000F2E700BFE84C00085C4B0008B04E000821
:10263000C44E000808B540B103780133DBB2037023
:102640001F2B01D90023037008BD034B034A40F23E
:102650005531034801F0C6F9704E0008384B0008A8
:10266000B04E000808B503680B600160C38813B161
:10267000013BC38008BD034B034A40F22F6103486E
:1026800001F0B0F9404E0008BC4B0008B04E000805
:1026900070B506460C4605E00D6806F10C00FFF724
:1026A000E1FF656061680029F6D1E38A6FF30903F1
:1026B000E3820020002170BD08B5436883B9C37D63
:1026C000C3F38402013262F38603C375C38A6FF3D6
:1026D0000903C382C3F307236FF3C713C37508BD90
:1026E000034B044A40F22641034801F07BF900BF46
:1026F0008C4E0008684B0008B04E00082DE9F843E6
:10270000089F4AB14FEAD10C03EBD70301F0070150
:1027100007F007070A4431E01A4B1B4A4FF4A66141
:102720001A4801F05FF901F0070807F0070E464666
:10273000F04538BF7646C6F10806541AA64228BFAF
:1027400026464FF47F45F540EDB245FA0EF5CC082C
:1027500000EB0C0919F8044004FA08F424FA0EF40A
:10276000E4B24FEAD70813F808E08EEA04042C40DC
:102770008EEA040E03F808E0314437449142D2D186
:10278000BDE8F883FC4C0008804B0008B04E000800
:102790002DE9F04F87B0059203930490002840D0B4
:1027A0008846049B9B8ADA008A4240F2ED800599B4
:1027B00041448A4205D2D0B25FFA88F3C01AC3B24C
:1027C0000593059B002B33D0049BDB68002B36D090
:1027D000B8F12F0F44D8C8F13003059A9A423CD380
:1027E0005FFA88F3C3F13003DBB20293049B98686D
:1027F00000230093039B029C22464146FFF77EFF85
:10280000A044059A141BE4B2049B9F8A07F1005769
:10281000063FFF00D3F80CA04FF03009A346544602
:1028200044E05A4B5A4A40F252515A4801F0DAF801
:10283000594B574A40F25E51564801F0D3F8049B79
:102840001B69002BC4D1049B986800230093039B51
:10285000059A4146FFF752FF6EE0059B0293C5E7DC
:10286000059C00230293CFE74C4B494A40F27F512D
:10287000484801F0B7F85D46C84530D3029B009345
:10288000039B2A46A8EB0901201DFFF737FFA84448
:10289000029B2B44DBB20293ABEB050B5FFA8BFB85
:1028A000B14523D2A7EB0A072468B1462CB3BBF18C
:1028B000000F22D0002FD7D0BA46E02F28BF4FF00C
:1028C000E00A0AEB0906B045EAD2A6EB08039B45ED
:1028D000D1D3F5B25FFA88F3ED1AEDB2CCE7304B05
:1028E0002B4A4FF4B1612B4801F07CF82D4B284A5C
:1028F00040F29251274801F075F85C46BB4520D85C
:10290000049B186978B174B1C84521D3029E009622
:10291000039B2246A8EB0901FFF7F0FED84434449C
:10292000E3B202930024049B9B8AB8EBC30F16D832
:10293000029B402B1AD804BBBDF9140007B0BDE8B8
:10294000F08F194B124A4FF4B361124801F04AF864
:10295000134B0F4A40F29D510E4801F043F8134BC0
:102960000B4A4FF4B5610B4801F03CF8104B084A94
:1029700040F2A951074801F035F80E4B044A40F2E5
:10298000AA51044801F02EF80020D7E70C4D0008AA
:10299000904B0008B04E00081C4D00082C4D00085C
:1029A000404D0008684D0008904D0008B84D0008E3
:1029B000E84D0008004E000810B518B10246013974
:1029C00000230CE0074B084A40F2C551074801F0CC
:1029D00009F8D05C545CD4545054013301398B4213
:1029E000F7D310BDE04E0008AC4B0008B04E000815
:1029F00008B5FFF73EFD034628B1002202604260A1
:102A00008260C2600261184608BD00002DE9F04FE7
:102A100083B001930C9EBDF83450009090B18A466B
:102A2000934611F0604F14D1002A7BD00DB1002ED7
:102A30007BD0072D14D94FF080094FF00008444691
:102A400047465BE03D4B3E4A40F265313D4800F071
:102A5000C9FF3D4B3A4A40F266313A4800F0C2FFA6
:102A6000009F07F10C00FFF7C3FF044600285FD06A
:102A70002A463146083001F009F86B1C23749BF894
:102A8000003003F01F0343F0C00325442B724AF0CB
:102A90000043636021463846FFF790FD0127384622
:102AA00003B0BDE8F08F002306E0305DCA18107255
:102AB0000133DBB20134A4B2062B01D8AC42F4D30B
:102AC000AC422CD04FEA4812D2B242EA09099BF834
:102AD000002002F01F0249EA0209CA1882F8089091
:102AE0004AF000424A6001330B740098FFF766FD1C
:102AF00001373FB288F001084FF00009AC42CED058
:102B0000009B03F10C00FFF773FF014698B1002C06
:102B1000C9D1019A0A72130A43720223CCE74FF01B
:102B20004009CFE76FF00107B9E76FF00107B6E79B
:102B30006FF00207B3E76FF00207B0E7E84C000858
:102B40004C4B0008B04E00081C4E000830B589B050
:102B500004460D4620220021684600F0A2FF04959D
:102B60002046FFF786FC054650B16C460FCC286026
:102B70006960AA60EB600FCC28616961AA61EB61B2
:102B8000284609B030BD10B504460C30FFF7DEFF13
:102B9000034610B1A2690260A061184610BD38B5A5
:102BA00004460D46806928B1FFF70EFC034650B17C
:102BB000184638BD04F10C00FFF7C8FF0346002893
:102BC000F6D0A061F4E729462046FFF7DCFF034674
:102BD000EEE7000010B5C8B1044600202060E060B8
:102BE000206160612070A360029B6360A061E0616E
:102BF000039B23625209B2F5803F01D34FF6FF7267
:102C000092B204F10C00FFF722FC10BD024B034A04
:102C10004F21034800F0E6FEE44C0008D84A0008C3
:102C2000B04E000808B538B102785AB951B111F068
:102C3000800F07D1017008BD054B064A7321064875
:102C400000F0D0FE054B034A7D21034800F0CAFE88
:102C5000E84C0008E44A0008B04E0008184D00088F
:102C6000007870472DE9F04A85B0BDF830409DF8F6
:102C700038B00F9EBDF840709EB3BBF11F0F4BD80C
:102C8000CDE902230546FFF7EBFF814670BB072F16
:102C900045D834F0030345D13A4631464FF6FF702C
:102CA000FFF7C9FB20F001004004400C400240EA5D
:102CB0000B6B240204F440744BEA040444EA09094F
:102CC0004FF6FF73019700960D9A49462846FFF785
:102CD0009DFE04460D98FFF7ADFC204605B0BDE80B
:102CE000F08A002FC9D06FF00104F6E7240244EA0D
:102CF0000B6444EA0009072F0BD9DDE902234FF6E4
:102D0000FF70FFF77FFB3A463146FFF794FB03461F
:102D1000D8E74FF6FF73D5E76FF00104DDE76FF0FA
:102D20000304DAE76FF00104D7E72DE9F04F83B031
:102D30009DF838409DF83CA0109EBDF8447086B3C5
:102D40001F2C3AD8904699468B460546FFF788FFD8
:102D5000B0B39DF830301B0443EA046444EACA343B
:102D600044EA0B24044344F08004072F1ED9424652
:102D70004B464FF6FF70FFF745FB3A463146FFF7EB
:102D80005AFB0346019700960D9A21462846FFF705
:102D90003DFE0446BAF1010F0BD0204603B0BDE85A
:102DA000F08F002FCCD06FF00104F6E74FF6FF73E1
:102DB000E8E70D98FFF73EFCEFE76FF00104ECE762
:102DC0006FF00304E9E7C06908B1043070470020E0
:102DD000704708B5C1690B68C3610C30FFF742FC4E
:102DE00008BD00002DE9F04782B00A9E002800F0DF
:102DF00022810446002E00F02181551EEDB23F2DA8
:102E000000F21F81012A02D1002B40F01D812046D3
:102E10001D4614460023009301936B46FFF7B8FC50
:102E2000071E40F3D1807B1E9BB23F2B1CD8A742CC
:102E30001ADC14F0070F0AD002AB03EBD40111F82F
:102E4000083C624202F00702134101F8083C012CE1
:102E500018D0082C47D9102C48D9202C49D9402CFF
:102E600009D84FF008080EE0794B7A4A4FF40B71FD
:102E7000794800F0B7FD794B764A40F24521764813
:102E800000F0B0FDA04608F1FF33DBB2072B33D8CA
:102E9000FFF7A1FA002836D19DB1B4EBC80F10D0CE
:102EA000082C35D89DF80010621E21FA02F212F0AB
:102EB000010F06D00123A3405B42DBB20B438DF828
:102EC0000030002D00F09280082C7AD9102C7FD988
:102ED000202C40F28180402C00F28180DDE900232B
:102EE000C6E9002370E04FF00108CCE74FF002087C
:102EF000C9E74FF00408C6E7594B564A40F249214A
:102F0000554800F06FFD41466846FFF755FDC3E7A1
:102F1000102C0FD8BDF80020631E22FA03F313F023
:102F2000010FCED00123A3405B429BB21343ADF807
:102F30000030C6E7202C0CD8009A631E22FA03F357
:102F400013F0010FBDD00123A3405B421A4300924E
:102F5000B7E73F2C2ED8DDE9009A04F1FF3CCCF115
:102F60002008A4F1210E29FA0CF00AFA08F840EA28
:102F700008002AFA0EFE40EA0E0000F001020023CB
:102F800013439ED04FF0010CA4F12008C4F1200E91
:102F90000CFA08F32CFA0EFE43EA0E030CFA04F2C4
:102FA000524263EB430349EA02004AEA0301CDE9D6
:102FB000000186E7294B274A40F27721264800F096
:102FC00011FD9DF900303370384602B0BDE8F0873E
:102FD000BDF900303380F7E7009B3360F4E71F4B07
:102FE0001C4A40F287211C4800F0FCFC012C0CD04C
:102FF000082C0ED9102C10D9202C12D9402C13D803
:10300000DDE90023C6E90023DEE79DF800303370D8
:10301000DAE79DF800303370D6E7BDF80030338032
:10302000D2E7009B3360CFE70C4B0A4A4FF425717F
:10303000094800F0D7FC6FF00107C5E76FF0010702
:10304000C2E76FF00107BFE76FF00107BCE700BF01
:10305000C84B0008104B0008B04E0008184D00087F
:10306000044C0008F0B585B090B10E4614460546F4
:10307000ABB1402A1AD802B3002202920392012C6B
:1030800022D0082C3ED81B788DF8083001271FE08D
:10309000284B294A4FF42A71284800F0A3FC284BFA
:1030A000254A40F2A921254800F09CFC254B224AE4
:1030B00040F2AD21214800F095FC224B1E4A40F21F
:1030C000B3211E4800F08EFC1B788DF8083027468F
:1030D000FFF781F948BB14F0070F0AD004AB03EBEC
:1030E000D40111F8083C624202F00702934001F853
:1030F000083C00962B462246002102A8FFF7FEFA64
:1031000005B0F0BD102C04D81B88ADF8083002279C
:10311000DEE7202C03D81B6802930427D8E7D3E905
:103120000023CDE902230827D2E7394602A8FFF79A
:1031300043FCD0E7344C0008244B0008B04E000894
:10314000504C0008184D000870B506460C4605E0C6
:103150000D6806F10C00FFF785FAE560E1680029CB
:10316000F6D10023E360A3602361A38270BD000059
:103170002DE9F04F93B007460D46CDE902230C68C8
:103180002046FFF704F90646022806D0C4F30628B5
:10319000002C05DB13B0BDE8F08F4FF00008F7E717
:1031A00014F0C04FF6D195F80C90B9F1000FF1D0A2
:1031B000022E04D03846FFF753FD4045EAD1C4F350
:1031C0000463049304F07F0A2046FFF7ECF80590AF
:1031D00040EA064343EA8A4343EA486809F1FF3973
:1031E000A94499F804905FEAD91B45D012A900229E
:1031F000002361E908237C68CDF800A0334602462D
:103200003846A0470028C5D041463846FFF7C7FCDE
:1032100004460028BED0DDE90A234FF6FF70FFF711
:10322000F1F8A082002C2FD0D4E90223DDE90201BD
:10323000CDE90623801A61EB0301CDE90801E07DA9
:1032400009F01F084146C0F38400FFF76FF8844679
:10325000DDE90623134320D0AA4A0023DDE9080153
:103260008B4208BF824248D3BBF1000F47D0BCF16C
:10327000010F10DD012311E04146B869FFF7A4F802
:1032800004460028CED185E79F4BA04A4FF49D719C
:103290009F4800F0A7FB002300E00123002B30D162
:1032A000BBF1000F42D019F0400F3FD0DDE9021210
:1032B000C4E9021200230D930E931193CDE90A1273
:1032C0002B1D0C932B7B013BDBB2ADF83C30BDF8E2
:1032D0001430ADF83E308DF840608DF841809DF897
:1032E00010308DF842308DF843A0BB680AA93846EB
:1032F00098472046FFF7E0F94CE70123CEE700238B
:10330000CCE7E37D69F386036FF3C713E3752146CA
:103310003846FFF7BDF9BBF1000FC1D1E37DC3F320
:103320008402013262F38603E37533E7C9F3401385
:10333000E27DB3EBD21F7FF42DAFC2F38403984537
:103340007FF428AFBBF1000F33D019F0400F30D11C
:103350002B7B032B7FF61EAFDDE90223C4E902239A
:10336000AE1D2B7B033BDBB23246214607F10C003E
:10337000FFF798F8002814DB2B796A7943EA0223D7
:1033800023832A7B033AD2B23146A08AFFF753F84F
:10339000A082E37DDA43C2F3C01262F3C713E37580
:1033A000F8E621463846FFF773F92046FFF784F91F
:1033B000F0E6BBF1000F02D119F0400F09D0297BD4
:1033C0000139C9B2E28AC2F30902052A65D800238D
:1033D00025E02E1D2B7B013BDBB23246214607F157
:1033E0000C00FFF75FF8002808DB2A7B013AD2B215
:1033F0003146A08AFFF71FF8A082CAE72146384667
:10340000FFF746F92046FFF757F9C3E6E81890F8AA
:1034100004C0A01880F81AC001320133DBB2052ABB
:1034200001D88B42F2D3DDE902BCCDE90ABC04F13C
:103430001A020C9262680D928B4260D22B440433C4
:103440000E93E38AC3F309031944ADF83C10BDF8A9
:103450001430ADF83E308DF840608DF841809DF815
:1034600010308DF842308DF843A0002363602A7B32
:10347000013A291DA08AFEF7DEFFA082238B984225
:1034800003D1BB680AA9384698470AA93846FFF70E
:103490005BFE2046FFF710F97CE6606810B14FF044
:1034A000060C04E00023BEE70CF11C0C1846036870
:1034B000002BF9D128B1A2EB0C021B2A08D800235B
:1034C00018E0144B114A4FF4D871114800F08AFAF1
:1034D000114B0E4A40F2B3110D4800F083FA05EB90
:1034E000030C9CF804E000EB020C8CF804E00132C1
:1034F0000133DBB21B2A96D88B42F0D393E700232B
:103500009EE700BF80841E00684C0008FC4A00084B
:10351000B04E0008804C0008984C000810B40346D8
:1035200020F0604421F06042C80FB0EBD37F0FD091
:10353000002B09DB002909DB944203D094422CBF05
:103540000020012010BC7047A40CF3E7920CF3E7B5
:10355000C3F38073C1F38070944204D094422CBFB3
:1035600000200120EEE78342ECD1F7E7021E06DBE4
:10357000500512F0804F01D040F002007047D30098
:1035800043F00400F5E710F0040F07D1430D10F0ED
:10359000020F01D043F0804318467047C30843F040
:1035A0000043F4E70022B2F57A7F08D2436803F0C3
:1035B0000103DBB28B4204D0013292B2F3E7002068
:1035C0007047012070470000104B9B6913F0700F8B
:1035D0001BD04DF804BD0D4B00229A610C49D1E976
:1035E00002BC1BF101024CF10003C1E90223094BAB
:1035F0001B7823B9054B9B6913F0040F02D0034BD2
:10360000054A9A605DF804BB70477047006400404B
:10361000800100207801002080808000022900F2D3
:10362000B380002800F0B38038B50388002B00F089
:10363000B180B3F5806F00F2B0800379002B00F009
:10364000AF80042B00F2AF808378002B00F0AE80B7
:10365000102B00F2AE80C378002B00F0AD80082B59
:1036600000F2AD800C460546564A002313605360B5
:103670009360D360022914BF00210121524A1170C6
:1036800052484361036823F002030360036843F078
:10369000010303600121FFF785FF002857D04B4B42
:1036A00061221A602B79013B1B0603F04073AA7854
:1036B000013A120402F470221343EA78013A120527
:1036C00002F4E00213432A88013AC2F309021343C9
:1036D000012C43D0002213433C4AD3615369002B91
:1036E0003FD13A48036823F0010303600021FFF74C
:1036F00059FF00283BD0354AD2F8003223F47C53DE
:1037000023F00E0343F4606343F00103C2F8003278
:10371000D2F80032C3F305230E2B2FD12B4B002000
:10372000C3F804026FF07042C3F80C22284AC3F8B1
:103730001422C3F84002C3F844020122C3F81C2239
:10374000D3F8002222F00102C3F8002238BD1F4B3B
:103750004FF400421A606FF47A70F7E74FF00042BE
:10376000B9E71C4B1C4AE8211C4800F03BF9174BF9
:103770004FF400421A60A0F2EA30E7E7184B164A0D
:10378000FE21164800F02EF96FF0010070476FF02F
:10379000010070476FF00100D8E76FF00100D5E736
:1037A0006FF00100D2E76FF00100CFE76FF001008A
:1037B000CCE76FF00100C9E76FF00100C6E76FF0DA
:1037C0000100C3E780010020780100200064004070
:1037D000AAAAAA0A204F0008FC4E0008584F000869
:1037E000804F0008002875D070B582B00446036889
:1037F00013F0005F71D1FFF7E7FE394B9B6803F0D0
:10380000E053B3F1E05F63D0354B9A68C2F3806256
:103810008DF804209A68C2F3C0628DF805209B6879
:10382000C3F300738DF806300025FF2602E02E4614
:103830000135EDB2022D13D802AB2B4413F8043C32
:10384000002BF4D105F118031B01254AD058FFF7CE
:103850009AFE01462068FFF761FE0028E8D127E0C4
:10386000FF2E27D0022E2CD8350105F1804505F515
:10387000CB45237B6B60E27AA37A1B0443EA0263A5
:10388000627A43EA0223227A1343EB60E279A37956
:103890001B0443EA0263627943EA02232279134359
:1038A000AB602068FFF762FE40F001002860012055
:1038B00002B070BD0B4B0C4A40F25D110B4800F09A
:1038C00091F80B4B084A40F26711084800F08AF85B
:1038D0000026C9E76FF0010070470648E8E700BF1F
:1038E00000640040CC4F00080C4F0008584F0008FF
:1038F000DC4F000815FCFFFF002843D02DE9784875
:103900000546FFF761FE0023012B38D81F4C04EB5E
:1039100003141F4A52F82360326812F0030F01D1DA
:103920000133F1E7336813F0100F08D01949D1E9DA
:1039300000BC1BF101024CF10003C1E90023206827
:10394000FFF721FE2860636803F00F032B73A26862
:10395000E3682A71C2F307216971C2F30741A971B3
:10396000120EEA712B72C3F307226A72C3F3074285
:10397000AA721B0EEB7238233360012000E0002096
:10398000BDE878886FF00100704700BFB065004067
:10399000F44E000880010020002103E00B4B5B582F
:1039A000435004310A480B4B42189A42F6D30A4A54
:1039B00002E0002342F8043B084B9A42F9D3FEF799
:1039C00009F800F03FF8FCF70FFC7047C8500008FA
:1039D000000000201C010020200100209C06002087
:1039E000FEE700001FB51C46094B05461B68D8685A
:1039F00052B1084BCDE9013200912B4622460649CF
:103A000000F00EF800F0EAFB044B1A46F2E700BFA4
:103A1000B8000020EC4F0008F94F000827500008BC
:103A20000EB403B5014603AB054853F8042B0068F8
:103A3000019300F065F802B05DF804EB03B0704745
:103A4000B800002070B500250C4E0D4CA41BA4102E
:103A5000A54209D100F0AEFF00250A4E0A4CA41B76
:103A6000A410A54205D170BD56F825309847013500
:103A7000EEE756F8253098470135F2E7C0500008C8
:103A8000C0500008C0500008C450000810B5431EC4
:103A90000A44914200D110BD11F8014B03F8014FC7
:103AA000F7E703460244934200D1704703F8011B35
:103AB000F9E7936810B4013B002B936007DA94692F
:103AC000A34201DB0A2902D110BC00F0C7BA136877
:103AD000581C10601970084610BC7047F8B50646AF
:103AE0000F461446D518AC4201D1002007E03A46F3
:103AF00014F8011B3046FFF7DCFF431CF3D1F8BD7F
:103B00002DE9F04F9DB00C4617460393064618B1B9
:103B100083690BB900F05AFC7B4B9C4257D1746807
:103B2000A38918075DD52369002B5AD00023099378
:103B300020238DF8293030234FF0010B8DF82A30E7
:103B4000B846454615F8013B0BB1252B54D1B8EBCF
:103B5000070A0BD053463A4621463046FFF7BEFFD0
:103B6000013000F0C280099B5344099398F800305B
:103B7000002B00F0BA8000234FF0FF32CDE905237F
:103B8000049307938DF853301A93A846052218F82A
:103B9000011B5E4800F008FD049B78BBD90644BFBA
:103BA00020228DF853201A0744BF2B228DF8532072
:103BB0002A782A2A2AD0A84600200A25079A4146B0
:103BC00011F8013B303B092B69D960B324E0504B1D
:103BD0009C4201D1B468A3E74E4B9C4208BFF468F5
:103BE0009EE72146304600F08BFA00289ED04FF029
:103BF000FF301DB0BDE8F08FA846A2E7434A454616
:103C0000801A0BFA00F018430490BEE7039A111DC6
:103C100012680391002A01DB079204E0524243F04C
:103C200002030792049398F800302E2B0ED198F8D7
:103C300001302A2B38D1039B08F102081A1D1B689A
:103C40000392002BB8BF4FF0FF330593324D032290
:103C500098F80010284600F0A7FC40B14023401B14
:103C600003FA00F0049B08F101080343049398F859
:103C700000100622294808F101078DF8281000F0ED
:103C800093FC002837D0264B1BBB039B073323F044
:103C9000070308330393099B4B44099350E705FB43
:103CA0000232012088468AE700230A25194608F1D6
:103CB00001080593404610F8012B303A092A03D930
:103CC000002BC3D00591C1E705FB012101238046EC
:103CD000F0E703AB00932246124B04A93046AFF342
:103CE0000080B0F1FF3F8146D5D1A3895B063FF547
:103CF0007EAF09987DE703AB00932246094B04A9E8
:103D0000304600F087F8ECE7805000082C5000089F
:103D1000A0500008605000083250000836500008DB
:103D200000000000DD3A00082DE9F04791461F46EB
:103D30008A680B6906469342B8BF1346C9F800303B
:103D400091F843200C46DDF8208012B10133C9F808
:103D500000302368990642BFD9F800300233C9F811
:103D60000030256815F0060507D104F1190AE3684B
:103D7000D9F800209B1AAB4229DC94F84330226822
:103D8000003318BF012392062ED404F143023946B2
:103D90003046C047013021D02368E56803F00603B0
:103DA000042B18BF0025D9F800204FF0000908BFE8
:103DB000AD1AA368226908BF25EAE5759342C4BF1E
:103DC0009B1AED181A344D451AD1002008E0012342
:103DD000524639463046C047013003D14FF0FF30DC
:103DE000BDE8F0870135C2E73020E11881F84300D3
:103DF0005A1C94F845102244023382F84310C4E759
:103E00000123224639463046C0470130E6D009F149
:103E10000109D8E72DE9F04301F1430C0C46097E76
:103E200085B06E291746064698460C9A00F0B38076
:103E300022D8632936D00AD8002900F0B980582941
:103E400000F0838004F1420584F8421032E06429D6
:103E500001D06929F6D120681368050603F1040131
:103E60002AD51B681160002B03DA2D225B4284F8EF
:103E700043206F480A2239E0732900F09D8008D85A
:103E80006F2920D07029DDD1236843F020032360FF
:103E900003E0752917D07829D4D17823654884F8B0
:103EA000453055E0136804F14205191D1B68116087
:103EB00084F8423001238CE01B6810F0400F116041
:103EC00018BF1BB2CFE713682568181D10602806BD
:103ED00001D51B6802E06806FBD51B886F2914BF5B
:103EE0000A2208225248002184F843106568002DF8
:103EF000A560C0F29580216821F004012160002BAB
:103F00003DD1002D40F08E806546082A0BD12368F4
:103F1000DB0708D5236962689A42DEBF302305F8C3
:103F2000013C05F1FF35ACEB05032361CDF80080C2
:103F30003B4603AA21463046FFF7F6FE01304DD13D
:103F40004FF0FF3005B0BDE8F083394884F84510E4
:103F5000136821681D1D1B6815600A060BD5CA076A
:103F600044BF41F0200121601BB9226822F02002E9
:103F700022601022B7E74D0648BF9BB2EFE76546C7
:103F8000B3FBF2F102FB1133C35C05F8013D0B46B4
:103F90000029F5D1B9E713682568181D616910601B
:103FA00028061B6801D5196002E06A06FBD5198056
:103FB000002365462361B9E71368191D11601D6868
:103FC00062680021284600F0EFFA08B1401B6060EB
:103FD00063682361002384F84330A7E723692A46F6
:103FE00039463046C0470130AAD023689B0713D416
:103FF000E068039B9842B8BF1846A3E701234A46EE
:1040000039463046C04701309AD00135E368039AFB
:104010009B1AAB42F2DCEBE7002504F11909F5E746
:10402000002BACD1037804F1420584F842306CE7F0
:104030003D5000084E50000810B56AB1013984188F
:1040400010F8013B11F8012F934203D1A04201D097
:10405000002BF5D1981A10BD1046FCE7F8B50E46B6
:104060001446054618B183690BB900F0AFF9214B2E
:104070009C422AD16C68A369A360A3891A072ED534
:10408000236963B323692068F6B2C01A63693746AF
:10409000834204DC2146284600F02EF928BBA368A1
:1040A0000130013BA36023685A1C22601E706369C3
:1040B000834204D0A389DB0719D50A2E17D12146E4
:1040C000284600F019F990B10FE00B4B9C4201D14A
:1040D000AC68D0E7094B9C4208BFEC68CBE72146AF
:1040E000284600F00DF80028CCD04FF0FF373846B6
:1040F000F8BD00BF80500008A050000860500008C4
:10410000324B70B51D6806460C4625B1AB6913B934
:10411000284600F05BF92E4B9C420FD16C68B4F935
:104120000C309AB215072CD4D00611D40922326073
:1041300043F04003A3814FF0FF303EE0254B9C420B
:1041400001D1AC68EBE7244B9C4208BFEC68E6E782
:10415000510712D5616B41B104F14403994202D079
:10416000304600F02FFA00236363A38923F0240371
:10417000A3810023636023692360A38943F00803BC
:10418000A38123694BB9A38903F42073B3F5007F9E
:1041900003D02146304600F0C7F9A28912F001038E
:1041A0000CD00023A36063695B42A361236953B908
:1041B000B4F90C3013F08000BAD170BD920758BF2B
:1041C0006369A360F2E70020F7E700BFB8000020B2
:1041D00080500008A05000086050000808B5062074
:1041E00000F0CEFA012000F0E3FB00008A892DE9FF
:1041F000F041054610070C4658D44B68002B05DCEF
:104200000B6C002B02DC0020BDE8F081E66A002E7A
:10421000F9D0002312F480522F68216A2B6032D02B
:10422000606DA3895A0705D56368C01A636B0BB12B
:10423000236CC01A00230246E66A216A2846B0476A
:10424000431CA38906D129681D2948D8294ACA4098
:10425000D60744D5002262602269D904226004D5C1
:10426000421C01D12B6803B96065616B2F60002986
:10427000C9D004F14403994202D0284600F0A2F9C3
:1042800000206063C0E701232846B047411CC8D125
:104290002B68002BC5D01D2B01D0162B01D12F6010
:1042A000B1E7A38943F04003A381ADE70F69002F75
:1042B000A9D0930718BF00230E6808BF4B69A6EB6F
:1042C00007080F608B60B8F1000F9CDD43463A464B
:1042D000216A2846A66AB047002806DCA38943F075
:1042E0004003A3814FF0FF308EE70744A8EB00089E
:1042F000E9E700BF0100402038B50B6905460C46D0
:10430000DBB118B183690BB900F060F80C4B9C422B
:1043100009D16C68B4F90C307BB121462846BDE860
:104320003840FFF763BF074B9C4201D1AC68F1E70F
:10433000054B9C4208BFEC68ECE7002038BD00BF8D
:1043400080500008A050000860500008002310B5FD
:104350000446C0E90033836081814366C281C0E9BD
:1043600004338361194608225C30FFF79AFB054B42
:1043700024626362044BA362044BE362044B236335
:1043800010BD00BFB9470008DB470008134800080C
:1043900037480008014900F085B800BFF94200081D
:1043A00070B568254A1E55430E4605F1740100F0AC
:1043B00055F9044640B10021C0E900160C30A06058
:1043C00005F16802FFF76DFB204670BD836910B5EB
:1043D000044633BBC0E912330365124B124A1B6813
:1043E0008262984204BF0123836100F01FF860607D
:1043F000204600F01BF8A060204600F017F80022CD
:10440000E06004216068FFF7A1FF01220921A06894
:10441000FFF79CFF02221221E068FFF797FF0123BC
:10442000A36110BD2850000895430008F8B51B4B48
:1044300007461E68B36913B93046FFF7C7FF483611
:10444000D6E90134013B03D5336833B13668F7E769
:10445000B4F90C506DB16834F4E704213846FFF725
:104460009FFF30600028F1D10C2304463B602046BA
:10447000F8BD0B4B6566C4E90055A560C4E903357A
:10448000C4E905550822294604F15C00FFF709FB41
:10449000C4E90D55C4E91255E9E700BF28500008EA
:1044A0000100FFFF2DE9F84380468946002600F110
:1044B000480414B93046BDE8F883D4E90175013FDA
:1044C00001D52468F5E7AB89012B07D9B5F90E3082
:1044D000013303D029464046C84706436835EEE716
:1044E00070B50E46B1F90E1096B0002914461D465F
:1044F00007DA00232B60B3891A0610D44FF48063C7
:104500000EE06A4600F0BEF90028F2DB019A02F4E0
:104510007042A2F500535A425A412A60EEE7402306
:104520000020236016B070BD8B8973B59D070646C9
:104530000C4607D504F1470323602361012363611F
:1045400002B070BD01AB6A46FFF7CAFF009905468D
:10455000304600F083F848B9B4F90C309A05EFD42E
:1045600023F0030343F00203A381E3E70D4BB3629F
:10457000A389206043F08003A381009B20616361D5
:10458000019B5BB1B4F90E10304600F08DF928B1F3
:10459000A38923F0030343F00103A381A3891D43EF
:1045A000A581CDE79543000810B5C9B202449042F9
:1045B000034601D1002303E01C7801308C42F6D180
:1045C000184610BD38B50546002943D051F8043CC3
:1045D0000C1F002BB8BFE41800F088F91E4A1368BE
:1045E000104633B9636014602846BDE8384000F0D7
:1045F0007EB9A3420BD921686218934201BF1A68A1
:104600005B685218226063600460EDE713465A68E5
:104610000AB1A242FAD919685818A0420BD12068F1
:104620000144581882421960DED110685268014472
:1046300019605A60D8E702D90C232B60D4E72068B0
:1046400021188A4201BF116852680918216062600E
:104650005C60C9E738BD00BF9001002070B5CD1C7B
:1046600025F0030508350C2D38BF0C25002D064616
:1046700001DBA94203D90C233360002070BD00F098
:1046800035F9214A1468214691B9204C23681BB999
:10469000304600F03DF820602946304600F038F8FA
:1046A000431C24D10C233046336000F020F9E4E7AA
:1046B0000B685B1B18D40B2B0FD90B60CC18CD509B
:1046C000304600F014F904F10B00231D20F0070020
:1046D000C31AD3D05A42E250D0E74B688C4216BF7F
:1046E000636013600C46EBE70C464968CCE7C41CDA
:1046F00024F00304A04205D0211A304600F008F847
:104700000130CFD02560DBE790010020940100202C
:1047100038B50023054C05460846236000F032F901
:10472000431C02D1236803B12B6038BD98060020DA
:104730001F2938B504460D4604D9162303604FF0EF
:10474000FF3038BD426C12B152F821304BB92046CF
:1047500000F030F82A4601462046BDE8384000F017
:1047600017B8012B0AD0591C03D11623036001206E
:10477000E7E70024284642F8254098470020E0E774
:10478000024B01461868FFF7D3BF00BFB8000020F6
:1047900038B50023064C054608461146236000F054
:1047A000D9F8431C02D1236803B12B6038BD00BF88
:1047B0009806002000F0BEB810B50C46B1F90E10F6
:1047C00000F096F80028ABBF636DA3891B1823F493
:1047D0008053ACBF6365A38110BD2DE9F0411F4636
:1047E0008B890546DB050C46164605D502230022BB
:1047F000B1F90E1000F068F8A389324623F4805313
:10480000A381B4F90E103B462846BDE8F04100F004
:1048100017B810B50C46B1F90E1000F055F8431C4E
:10482000A38915BF606523F4805343F48053A381AB
:1048300018BFA38110BDB1F90E1000F013B800002D
:1048400038B50546084611460022054C22601A4636
:1048500000F0A6F8431C02D1236803B12B6038BDD9
:104860009806002038B50023054C0546084623600D
:1048700000F050F8431C02D1236803B12B6038BD0F
:104880009806002038B50023064C05460846114618
:10489000236000F047F8431C02D1236803B12B606A
:1048A00038BD00BF9806002038B50023054C0546EA
:1048B0000846236000F046F8431C02D1236803B188
:1048C0002B6038BD9806002038B5054608461146CD
:1048D0000022054C22601A4600F044F8431C02D125
:1048E000236803B12B6038BD9806002070477047DD
:1048F00038B50546084611460022054C22601A4686
:1049000000F038F8431C02D1236803B12B6038BD96
:10491000980600205822024B4FF0FF301A60704773
:10492000980600205822024B4FF0FF301A60704763
:10493000980600205822024B4FF0FF301A60704753
:10494000980600205822024B00201A60704700BFD2
:10495000980600205822024B4FF0FF301A60704733
:10496000980600205822024B4FF0FF301A60704723
:10497000980600205822024B4FF0FF301A60704713
:1049800098060020044A05491368002B08BF0B460F
:10499000184410601846704798010020A0060020B7
:1049A0005822024B4FF0FF301A60704798060020E3
:1049B000FEE700BFF8B500BFF8BC08BC9E467047D4
:0C49C000F8B500BFF8BC08BC9E4670476C
:1049CC0002030405060708090A0B0C0D0E0F101044
:1049DC00010200005372632F6D61696E2E6300003B
:1049EC005372632F63616E2E630000005372632F4A
:1049FC0074696D2E630000005372632F75736172BE
:104A0C00742E63000000000000000000010203048B
:104A1C0006070809000000000102030463616E61CF
:104A2C00726453544D3332436F6D707574654341EA
:104A3C004E54696D696E6773000000004F4B0000A7
:104A4C00736B7979752E75617663616E5F616374D2
:104A5C007561746F720000006E6F00006F6B000068
:104A6C004E6F6465494400005374617475735261F0
:104A7C00746500004F7574496E6465780000000021
:104A8C0050574D4672657175656E63790000000074
:104A9C006273315F6273325F73756D203E20627397
:104AAC00310000006C696263616E6172642F647224
:104ABC0069766572732F73746D33322F63616E6117
:104ACC0072645F73746D33322E68000063616E61C3
:104ADC007264496E6974000063616E61726453653F
:104AEC00744C6F63616C4E6F646549440000000048
:104AFC0063616E61726448616E646C655278467273
:104B0C00616D650063616E6172644465636F6465B9
:104B1C005363616C6172000063616E617264456E17
:104B2C00636F64655363616C61720000696E6372DC
:104B3C00656D656E745472616E736665724944007E
:104B4C00656E717565756554784672616D65730037
:104B5C007075736854785175657565007072657001
:104B6C00617265466F724E6578745472616E7366CD
:104B7C0065720000636F7079426974417272617979
:104B8C000000000064657363617474657254726133
:104B9C006E736665725061796C6F61640000000021
:104BAC0073776170427974654F72646572000000AE
:104BBC0066726565426C6F636B00000028726573EA
:104BCC00756C74203E2030292026262028726573AF
:104BDC00756C74203C3D2036342920262620287202
:104BEC006573756C74203C3D206269745F6C656EF6
:104BFC006774682900000000287374645F6279741C
:104C0C00655F6C656E677468203E2030292026260F
:104C1C0020287374645F627974655F6C656E677469
:104C2C0068203C3D2038290064657374696E61749A
:104C3C00696F6E20213D202828766F6964202A290F
:104C4C003029000076616C756520213D202828767E
:104C5C006F6964202A2930290000000072785F7384
:104C6C007461746520213D202828766F6964202AA0
:104C7C0029302900626C6F636B20213D2028287637
:104C8C006F6964202A293029000000006F66667362
:104C9C0065745F77697468696E5F626C6F636B20B3
:104CAC003C2028333255202D205F5F6275696C746F
:104CBC00696E5F6F66667365746F66202843616EFC
:104CCC00617264427566666572426C6F636B2C2010
:104CDC0064617461292900006F75745F696E7320BB
:104CEC00213D202828766F6964202A29302900006C
:104CFC007372635F6C656E203E20305500000000BF
:104D0C007472616E7366657220213D203000000064
:104D1C006269745F6C656E677468203E20300000B9
:104D2C0072656D61696E696E675F62697473203E4E
:104D3C0020300000696E7075745F6269745F6F6615
:104D4C0066736574203E3D20626C6F636B5F6269B5
:104D5C00745F6F666673657400000000626C6F634D
:104D6C006B5F656E645F6269745F6F6666736574B2
:104D7C00203E20626C6F636B5F6269745F6F666666
:104D8C007365740072656D61696E696E675F6269E7
:104D9C00745F6C656E677468203C3D2072656D6154
:104DAC00696E696E675F626974730000696E707515
:104DBC00745F6269745F6F6666736574203C3D2036
:104DCC007472616E736665722D3E7061796C6F6181
:104DDC00645F6C656E202A20380000006F7574705B
:104DEC0075745F6269745F6F6666736574203C3DB1
:104DFC002036340072656D61696E696E675F626939
:104E0C00745F6C656E677468203D3D203000000057
:104E1C002863616E5F6964202620307831464646EF
:104E2C00464646465529203D3D2063616E5F6964C8
:104E3C0000000000616C6C6F6361746F722D3E73C7
:104E4C007461746973746963732E63757272656EC1
:104E5C00745F75736167655F626C6F636B73203E23
:104E6C00203000007472616E736665725F69642035
:104E7C00213D202828766F6964202A2930290000DA
:104E8C0073746174652D3E6275666665725F626CE3
:104E9C006F636B73203D3D202828766F6964202A50
:104EAC00293029006C696263616E6172642F6361E1
:104EBC006E6172642E6300006974656D2D3E6672BE
:104ECC00616D652E646174615F6C656E203E20308F
:104EDC00000000006461746120213D202828766F59
:104EEC006964202A293029000C64004010640040B9
:104EFC0063616E61726453544D3332496E69740050
:104F0C0063616E61726453544D33325472616E73CB
:104F1C006D69740030203D3D202828766F6C6174DB
:104F2C00696C652043616E61726453544D33324336
:104F3C00414E547970652A2930783430303036340B
:104F4C00303055292D3E4945520000006C69626392
:104F5C00616E6172642F647269766572732F7374FB
:104F6C006D33322F63616E6172645F73746D3332B3
:104F7C002E63000028282828766F6C6174696C6594
:104F8C002043616E61726453544D333243414E542D
:104F9C007970652A293078343030303634303055D9
:104FAC00292D3E464D52203E3E20385529202620A4
:104FBC00307833465529203D3D20313455000000D2
:104FCC00212243414E205052494F20494E56220037
:104FDC0074785F6D61696C626F78203C20330000DF
:104FEC002C2066756E6374696F6E3A200061737362
:104FFC00657274696F6E2022257322206661696C5C
:10500C0065643A2066696C6520222573222C206C1D
:10501C00696E65202564257325730A00BC00002089
:10502C00232D302B2000686C4C0065666745464785
:10503C000030313233343536373839414243444508
:10504C004600303132333435363738396162636477
:10505C006566000000000000000000000000000079
:10506C000000000000000000000000000000000034
:10507C000000000000000000000000000000000024
:10508C000000000000000000000000000000000014
:10509C000000000000000000000000000000000004
:1050AC0000000000000000000000000000000000F4
:0450BC0000000000F0
:0450C00035010008AE
:0450C40011010008CE
:1050C800010000001000000000A24A0400F00008DF
:1050D8000A000000000000006C4A00080000000000
:1050E80000000000000000000000000000000000B8
:1050F8006400000000000000000000000000000044
:10510800744A0008000000000000000000000000D1
:10511800050000000000000064000000000000001E
:105128000A00000000000000804A0008000000009B
:105138000000000000000000000000000000000067
:105148001400000000000000000000000000000043
:105158008C4A000800000000000000000000000069
:10516800EA01000000000000E80300000000000061
:105178000000000000000000BC000020000000004B
:1051880080500008A050000860500008000000008F
:105198000000000000000000000000000000000007
:1051A80000000000000000000000000000000000F7
:1051B80000000000000000000000000000000000E7
:1051C80000000000000000000000000000000000D7
:0C51D800000000000000000000000000CB
:04000005080039991D
:00000001FF
